:100000005AC074C073C072C071C070C06FC06EC07F
:100010006DC06CC06BC06AC069C068C067C066C094
:1000200065C064C09BC162C061C060C05FC05EC08B
:100030005DC05CC008000000BE922449123EABAA1D
:10004000AA2ABECDCCCC4C3E00000080BEABAAAAF2
:10005000AA3E00000000BF000000803F000000003A
:1000600000084178D3BB4387D1133D190E3CC3BD73
:100070004282AD2B3E68EC8276BED98FE1A93E4C20
:1000800080EFFFBE01C4FF7F3F0000000000076358
:100090004236B79BD8A71A39685618AEBAAB558CFA
:1000A0001D3CB7CC5763BD6DEDFD753EF617723143
:1000B000BF000000803F11241FBECFEFD2E0DEBFA3
:1000C000CDBF11E0A0E0B1E0E6E5FDE002C00590A3
:1000D0000D92AA33B107D9F711E0AAE3B1E001C04C
:1000E0001D92AD33B107E1F735D233C689CF1092F7
:1000F000C50085E08093C40088E98093C10086E054
:100100008093C20008959091C00095FFFCCF80932A
:10011000C60008958091C00087FF03C08091C6008B
:10012000F9CF0895CF93DF93EC018991882311F0E3
:10013000EADFFBCFDF91CF910895ECE7F0E080811B
:1001400080628083EAE7F0E0808184688083EEE764
:10015000F0E0808184638083089590917C00906CAE
:1001600090937C00E7EAF1E63197F1F700C00000D8
:1001700097B19F7C97B998B19F7C98B990917C007A
:10018000907F892B80937C0089EF90E00197F1F7B5
:1001900000C0000080917A00806480937A00809192
:1001A0007A0086FF05C090E19A95F1F700C0F7CF7D
:1001B0008091790080917A00806480937A008091A8
:1001C0007A0086FF05C0E0E1EA95F1F700C0F7CFBD
:1001D0002091780080917900F4E08F9FC001112474
:1001E0002295269526952370822B08958F929F92B3
:1001F000AF92BF92CF92DF92EF92FF920F931F9335
:10020000CF93DF9300D000D0CDB7DEB78C01FC01D7
:10021000E050FF4F8081A1DFBC0180E090E0ADD2D3
:100220002DEC3CEC4CEC5DE3A7D19B01AC012983A8
:100230003A834B835C835CD36B017C0129813A81D7
:100240004B815C8160E070E080E894E494D150D30D
:100250004B015C01F801EE0FFF1FEE0FFF1FEE5F79
:10026000FE4F2081318142815381C701B60184D183
:10027000A501940180D16B017C0120E030E040E4D5
:1002800050E4D9D34B015C018CE0809F9001819FA9
:10029000300D11248901065F1E4FF801248135813C
:1002A00046815781C701B60163D3F80120813181AE
:1002B0004281538161D16B017C01F8012085318538
:1002C00042855385C501B40153D39B01AC01C701DD
:1002D000B60152D19B01AC0160E070E080E89FE381
:1002E000B3D123E333E948E853E445D115D2CB0138
:1002F0000F900F900F900F90DF91CF911F910F9162
:10030000FF90EF90DF90CF90BF90AF909F908F9035
:1003100008952FE38DE093E0215080409040E1F775
:1003200000C0000080917000887F8093700080E2A0
:100330008093B6008091B10085608093B1001092E7
:10034000B2008091B6008F71E1F787B3876087BBF9
:100350008091700081608093700008951F920F92C9
:100360000FB60F9211242F933F934F935F936F9388
:100370007F938F939F93AF93BF93CF93EF93FF930D
:10038000C091C60082E291E0CDDEC33729F0C437C8
:1003900031F410923A0103C081E080933A01FF9159
:1003A000EF91CF91BF91AF919F918F917F916F917D
:1003B0005F914F913F912F910F900FBE0F901F9023
:1003C00018954F925F926F927F928F929F92AF9209
:1003D000BF92CF92DF92EF92FF920F931F93CF9332
:1003E000DF93D0E0C0E080E6C82E84E5D82E0EE191
:1003F0009EE1892E912C21E0C21AD10808F498C000
:1004000080E090E0F3DEF82E81E090E0EFDE182F40
:1004100085E291E087DE84E576DE8F2D74DE812F24
:1004200072DE83E470DE8D2D6EDE8C2D6CDE80E559
:100430006ADE8D2F68DE89E566DE8C2F64DE83E55B
:1004400062DE8BB180725FDE8DE291E06BDE8C2F1D
:10045000602F4CD491114DC01F1508F41F2DE12EB3
:10046000F12CB12CB5016E197F09882777FD809595
:10047000982F85D12B013C01B7016A197B09882788
:1004800077FD8095982F7BD19B01AC01C301B20110
:1004900072D02B013C0120E030E0A90120D21816D7
:1004A000E4F46D2F70E080E090E069D12B013C0115
:1004B0009B01AC0160E070E080EF91E45CD020E053
:1004C00030E040E05FE354D202D39B01AC01C301B2
:1004D000B20152D026D1D62F0DC020E030E0A901C4
:1004E000C301B201ADD087FF05C0DD2319F0D69559
:1004F00001C01A2DCD1301C05D98C11102C0D111E8
:100500005D9A8C2F90E00196B401FCD3C82F80E057
:1005100090E06CDE81E090E069DE2FE18FEB92E00D
:10052000215080409040E1F700C00000A12E63CF31
:100530005D98DF91CF911F910F91FF90EF90DF9029
:10054000CF90BF90AF909F908F907F906F905F9073
:100550004F900895559A209ACADDEFDD83E391E02C
:10056000E1DD789480913A018130E1F72ADF83E37D
:1005700091E0D8DDF7CF5058BB27AA270ED075C120
:1005800066D130F06BD120F031F49F3F11F41EF4AE
:100590005BC10EF4E095E7FB51C1E92F77D180F301
:1005A000BA17620773078407950718F071F49EF570
:1005B0008FC10EF4E0950B2EBA2FA02D0B01B901BF
:1005C00090010C01CA01A0011124FF27591B99F0C9
:1005D000593F50F4503E68F11A16F040A22F232FD5
:1005E000342F4427585FF3CF469537952795A79525
:1005F000F0405395C9F77EF41F16BA0B620B730BCC
:10060000840BBAF09150A1F0FF0FBB1F661F771F3C
:10061000881FC2F70EC0BA0F621F731F841F48F4F1
:10062000879577956795B795F7959E3F08F0B3CF77
:100630009395880F08F09927EE0F97958795089561
:10064000D9D008F481E008950CD00FC107D140F053
:10065000FED030F021F45F3F19F0F0C0511139C1E4
:10066000F3C014D198F39923C9F35523B1F3951B23
:10067000550BBB27AA2762177307840738F09F5FC3
:100680005F4F220F331F441FAA1FA9F333D00E2E32
:100690003AF0E0E830D091505040E695001CCAF79F
:1006A00029D0FE2F27D0660F771F881FBB1F261764
:1006B00037074807AB07B0E809F0BB0B802DBF0137
:1006C000FF2793585F4F2AF09E3F510568F0B6C050
:1006D00000C15F3FECF3983EDCF386957795679514
:1006E000B795F7959F5FC9F7880F911D96958795E8
:1006F00097F90895E1E0660F771F881FBB1F621707
:1007000073078407BA0720F0621B730B840BBA0BC4
:10071000EE1F88F7E095089504D06894B111D9C010
:100720000895BCD088F09F5790F0B92F9927B75102
:10073000A0F0D1F0660F771F881F991F1AF0BA95A5
:10074000C9F712C0B13081F0C3D0B1E00895C0C084
:10075000672F782F8827B85F39F0B93FCCF386959B
:1007600077956795B395D9F73EF4909580957095F8
:1007700061957F4F8F4F9F4F0895E89409C097FB75
:100780003EF490958095709561957F4F8F4F9F4F68
:100790009923A9F0F92F96E9BB279395F6958795AC
:1007A00077956795B795F111F8CFFAF4BB0F11F46F
:1007B00060FF1BC06F5F7F4F8F4F9F4F16C0882316
:1007C00011F096E911C0772321F09EE8872F762F4C
:1007D00005C0662371F096E8862F70E060E02AF08D
:1007E0009A95660F771F881FDAF7880F9695879579
:1007F00097F90895990F0008550FAA0BE0E8FEEF4E
:1008000016161706E807F907C0F012161306E407D4
:10081000F50798F0621B730B840B950B39F40A26CD
:1008200061F0232B242B252B21F408950A2609F4AB
:10083000A140A6958FEF811D811D089597F99F67AF
:1008400080E870E060E008959FEF80EC0895002458
:100850000A941616170618060906089500240A9425
:1008600012161306140605060895092E0394000CAB
:1008700011F4882352F0BB0F40F4BF2B11F460FF3A
:1008800004C06F5F7F4F8F4F9F4F089557FD905863
:10089000440F551F59F05F3F71F04795880F97FB44
:1008A000991F61F09F3F79F08795089512161306FE
:1008B0001406551FF2CF4695F1DF08C0161617062D
:1008C0001806991FF1CF8695710561050894089562
:1008D000E894BB2766277727CB0197F908958ADF2D
:1008E00008F48FEF08950EF05EC1AECF6894A6CFE6
:1008F000D5DFC8F39923D1F3C6F3DF93CF931F93CA
:100900000F93FF92C92FDD2788232AF02197660FC6
:10091000771F881FDAF720E030E040E85FEB9FE3C5
:10092000883920F0803E30F021968F7725DEE4E391
:10093000F0E003C021DEE1E6F0E043D18B01BE012F
:10094000EC01FB2E6F5771097595771F880B990B7A
:1009500016DF28E132E741E35FE316D0AF2D9801BF
:10096000AE01FF900F911F91CF91DF9116DE7DCFE9
:100970000BD07BCF6CDF28F071DF18F0952309F0E6
:100980005DCF62CF1124A5CF81DFA0F3959FD1F376
:10099000950F50E0551F629FF001729FBB27F00D2D
:1009A000B11D639FAA27F00DB11DAA1F649F662782
:1009B000B00DA11D661F829F2227B00DA11D621FD1
:1009C000739FB00DA11D621F839FA00D611D221F8B
:1009D000749F3327A00D611D231F849F600D211D6F
:1009E000822F762F6A2F11249F5750408AF0E1F012
:1009F00088234AF0EE0FFF1FBB1F661F771F881F5B
:100A000091505040A9F79E3F510570F017CF61CF2C
:100A10005F3FECF3983EDCF3869577956795B79545
:100A2000F795E7959F5FC1F7FE2B880F911D96956F
:100A3000879597F90895FA01EE0FFF1F309621056B
:100A4000310599F16115710561F48038BFE39B07A9
:100A500049F168949038810561F08038BFEF9B07B9
:100A600041F0992342F5FF3FE1053105210511F1E0
:100A7000E8940894E795D901AA2329F4AB2FBE2F57
:100A8000F85FD0F310C0FF5F70F4A695E0F7F73978
:100A900050F019F0FF3A38F49F779F930CD00F90E5
:100AA00007FC905808953EF0CFCE60E070E080E8FB
:100AB0009FE308954FE79F775F934F933F932F9363
:100AC00017DF2F913F914F915F9152DF25C0E6DEF6
:100AD000E0F09E37D8F09639B8F49E3848F4672F86
:100AE000782F8827985FF9CF8695779567959395A6
:100AF0009539D0F3B62FB1706B0F711D811D20F4A5
:100B0000879577956795939533C04DC0E2CE19F4DC
:100B10000EF094CEDDCE98CEC1DEC8F39638C0F785
:100B200007F80F92E8942BE33AEA48EB5FE72EDFF1
:100B30000F920F920F924DB75EB70F92A4D0EEE8CE
:100B4000F0E03FD04F915F91EF91FF91E595EE1F5F
:100B5000FF1F49F0FE57E0684427EE0F441FFA9547
:100B6000E1F74195550B5BD00F9007FE4FC00895FC
:100B7000882371F4772321F09850872B762F07C0B4
:100B8000662311F499270DC09051862B70E060E028
:100B90002AF09A95660F771F881FDAF7880F9695C7
:100BA000879597F908959F3F31F0915020F48795EC
:100BB00077956795B795880F911D9695879597F9C5
:100BC0000895DF93CF931F930F93FF92EF92DF92DD
:100BD0007B018C01689405C0DA2EEF01D5DEFE01A1
:100BE000E894A5912591359145915591AEF3EF018A
:100BF000D4DCFE019701A801DA9479F7DF90EF9039
:100C0000FF900F911F91CF91DF9108959B01AC014F
:100C100060E070E080E89FE317CD10CEC4CF3EDEE9
:100C2000E8F39923D9F3940F511DBBF39150504031
:100C300094F059F0882332F0660F771F881F915087
:100C40005040C1F79E3F510544F7880F911D96957E
:100C5000879597F908955F3FACF0983E9CF0BB27CD
:100C6000869577956795B79508F4B1609395C1F728
:100C7000BB0F58F711F460FFE8CF6F5F7F4F8F4FC6
:100C80009F4FE3CF26CEFA01DC01AA0FBB1F9B01C9
:100C9000AC01BF5728F422273327442750781FC0C0
:100CA000B75188F4AB2F0024469537952795011C42
:100CB000A395D2F3002069F0220F331F441FB39590
:100CC000DAF30DD058CC61307105A0E88A07B94637
:100CD00030F49B01AC0166277727882790783096FF
:100CE00021F020833183428353830895991B79E057
:100CF00004C0991F961708F0961B881F7A95C9F7AC
:100D00008095089597FB072E16F4009406D077FD82
:100D100008D00BD007FC05D03EF4909581959F4FED
:100D20000895709561957F4F0895AA1BBB1B51E1F3
:100D300007C0AA1FBB1FA617B70710F0A61BB70B4B
:100D4000881F991F5A95A9F780959095BC01CD01F0
:060D50000895F894FFCFA6
:100D560004052A411E41854B1E41FB1A6E3A43BAD1
:100D6600693955C33533DD5B913AD3D949398AF2AE
:100D76001D344F4B004D53473A31323A003A454FF6
:0A0D86004D3A0052656164790000E7
:040000050080013A3C
:00000001FF
